:020000040800F2
:100000000000012001060008510600085106000802
:1000100051060008510600085106000800000000C3
:100020000000000000000000000000005106000871
:1000300051060008000000005106000851060008A3
:100040000000000051060008510600085106000893
:1000500051060008510600088904000895040008AC
:100060005106000851060008510600080000000073
:100070000000000000000000000000000000000080
:100080000000000000000000510600080000000011
:100090000000000000000000000000005106000801
:1000A00051060008510600085106000851060008D4
:1000B0005106000851060008000000005106000823
:1000C00051060008510600085106000851060008B4
:1000D00051060008000000000000000000000000C1
:1000E00051060008510600085106000800000000F3
:1000F0000000000000000000000000000000000000
:100100000000000051060008000000005106000831
:1001100000000000000000000000000000000000DF
:1001200000000000000000000000000000000000CF
:1001300000000000000000000000000000000000BF
:100140000000000000000000000000005106000850
:10015000000000000000000000000000000000009F
:1001600051060008510600080000000000000000D1
:10017000000000000000000000000000000000007F
:100180000000000051060008000000000000000010
:04019000510600080C
:1001940010B5054C237833B9044B13B10448AFF3BD
:1001A40000800123237010BD2C04002000000000F7
:1001B400B807000808B5034B1BB103490348AFF364
:1001C400008008BD0000000030040020B8070008CB
:1001D40080B586B000AF0346FB71134A07F10C03E8
:1001E40007CA03C31A800023FB7515E0FB7907F1E6
:1001F4001802134413F80C3C1A46FB7D42FA03F32D
:10020400DBB203F00103DAB2FB7D1946074800F0C4
:1002140077F8FB7D0133FB75FB7D062BE6D900BF28
:100224001837BD4680BD00BFD0070008000002405B
:1002340080B582B000AF0023FB7108E0F979002398
:100244000122064800F00CF8FB790133FB71FB79BD
:10025400062BF3D900BF0837BD4680BD000002401D
:1002640080B483B000AF7860084611461A4603464E
:10027400FB700B46BB7013467B70204B1A6B7B786C
:10028400012101FA03F31D4913430B63BB78002BCF
:1002940016D07B681A68FB785B00012101FA03F32E
:1002A4001A437B681A607B681A68FB785B00013329
:1002B400012101FA03F3DB431A407B681A6016E05C
:1002C4007B681A68FB785B00012101FA03F3DB43C6
:1002D4001A407B681A607B681A68FB785B000133FC
:1002E400012101FA03F3DB431A407B681A6000BF63
:1002F4000C37BD465DF8047B704700BF00380240F0
:1003040080B483B000AF78600B46FB701346BB70BB
:100314007B681A68FB785B00012101FA03F3134040
:10032400002B18D0BB78002B09D07B685A69FB7866
:10033400012101FA03F31A437B685A6109E07B68DF
:100344005A69FB78012101FA03F3DB431A407B6805
:100354005A61002300E0012318460C37BD465DF8BE
:10036400047B704780B582B000AFFFF761FF0023C4
:10037400FB7108E0F979012300222A48FFF770FF96
:10038400FB790133FB71FB79012BF3D9264B5B6CB1
:10039400254A43F480435364244B9B68234A43F027
:1003A40001039360214B9B68204A43F01003936040
:1003B4001F4B1B681E4A43F0010313601C4B1B6850
:1003C4001B4A43F002031360194BDB68184A43F0DD
:1003D4000103D360164BDB68154A43F00203D36074
:1003E400144B1B68134A43F040031360114B1B6802
:1003F400104A43F0800313600F4B93F90030092B2C
:1004040004DC0D4B93F90030002B02DA0A4B002276
:100414001A70094B93F90030DBB21846FFF7D8FE87
:10042400EAE700BF000402400038024000380140FF
:10043400003C014000E100E04804002080B400AF2B
:10044400064B93F90030DBB20133DBB25AB2034BF3
:100454001A7000BFBD465DF8047B70474804002055
:1004640080B400AF064B93F90030DBB2013BDBB242
:100474005AB2034B1A7000BFBD465DF8047B704747
:100484004804002080B500AFFFF7D8FF00BF80BD4F
:1004940080B500AFFFF7E4FF00BF80BD80B500AFBB
:1004A400164BD3F88830154A43F47003C2F88830E9
:1004B400134B1B68124A43F001031360104B0022D4
:1004C4009A600F4B1B680E4A23F0847323F4803325
:1004D40013600B4B0B4A5A60094B1B68084A23F400
:1004E40080231360064B0022DA6000F00DF8034B02
:1004F4004FF000629A6000BF80BD00BF00ED00E0D5
:10050400003802401030002480B483B000AF0023D0
:100514007B6000233B60354B1B68344A43F48033D3
:100524001360324B1B6803F400333B607B68013378
:100534007B603B68002B03D17B68B3F5A04FF0D1FF
:100544002A4B1B6803F40033002B02D001233B60C9
:1005540001E000233B603B68012B40D1234B1B6C23
:10056400224A43F080531364214B1B68204A43F40E
:10057400404313601D4B1D4A9B6893601B4B1B4AF1
:100584009B689360194B9B68184A43F480539360AB
:10059400164B184A5A60154B1B68144A43F0807373
:1005A400136000BF114B1B6803F00073002BF9D0DC
:1005B400114B40F202721A600C4B9B680B4A23F0F9
:1005C40003039360094B9B68084A43F0020393605A
:1005D40000BF064B9B6803F00C03082BF9D100BF46
:1005E4000C37BD465DF8047B704700BF00380240FD
:1005F4000070004019544107003C02400D488546F4
:100604000D480E490E4A002302E0D458C450043366
:10061400C4188C42F9D30B4A0B4C002301E013603D
:100624000432A242FBD3FFF739FF00F011F8FFF7C1
:1006340099FEFEE700000120000000202C040020A9
:10064400EC0700082C04002070040020FEE70000E2
:1006540070B50D4E0D4D761BB61006D00024013436
:1006640055F8043B9847A642F9D1094E094D761B2B
:1006740000F0A0F8B61006D00024013455F8043B6D
:100684009847A642F9D170BDE0070008E0070008CA
:10069400E8070008E0070008024B13B1024800F025
:1006A40005B8704700000000BD060008002301469D
:1006B4001A46184600F01EB838B50A4C0A4D641B99
:1006C400A4100AD004F18043013B05EB8305013CEF
:1006D40055F804399847002CF9D1BDE8384000F0AA
:1006E4006FB800BFEC070008E8070008704700BFB8
:1006F400704700BF2DE9F8432B4D064628689846FD
:100704000F469146FFF7F2FF284B1C68D4F8483196
:10071400002B3DD05A681F2A0DDC02F1010C16BBD8
:100724000232C3F804C0286843F82270FFF7E0FFE0
:100734000020BDE8F8831E4B7BB34FF4C870AFF3C1
:100744000080034648B3D4F848210021C0E90021C1
:100754004FF0010CC4F848010A46C0F88811C0F8EB
:100764008C11002EDCD003EB82010124C1F88890A7
:10077400D3F8880194402043022EC3F88801C1F8BD
:100784000881CDD1D3F88C110C43C3F88C41C7E751
:1007940004F5A673C4F84831BCE72868FFF7A8FF3E
:1007A4004FF0FF30C5E700BF28040020DC07000835
:1007B40000000000F8B500BFF8BC08BC9E467047B6
:0C07C400F8B500BFF8BC08BC9E467047AA
:1007D0003F065B4F666D7D077F6F000000000020C5
:0807E0009D060008B9010008A4
:0407E800950100086F
:1007EC0000000000EC02002054030020BC03002099
:1007FC0000000000000000000000000000000000ED
:10080C0000000000000000000000000000000000DC
:10081C0000000000000000000000000000000000CC
:10082C0000000000000000000000000000000000BC
:10083C0000000000000000000000000000000000AC
:10084C00000000000000000000000000000000009C
:10085C00000000000000000000000000000000008C
:10086C00000000000000000000000000000000007C
:10087C00000000000000000000000000000000006C
:10088C00000000000000000001000000000000005B
:10089C000E33CDAB34126DE6ECDE05000B00000020
:1008AC00000000000000000000000000000000003C
:1008BC00000000000000000000000000000000002C
:1008CC00000000000000000000000000000000001C
:1008DC00000000000000000000000000000000000C
:0C0C0C0000000000000000004C0400206C
:0400000508000601E8
:00000001FF
