:020000040800F2
:1000000000000120BD0300080D0400080D040008D5
:100010000D0400080D0400080D0400080000000095
:100020000000000000000000000000000D040008B7
:100030000D040008000000000D0400080D04000875
:10004000000000000D0400080D0400080D04000865
:100050000D0400080D0400080D0400080D0400083C
:100060000D0400080D0400080D0400080000000045
:100070000000000000000000000000000000000080
:1000800000000000000000000D0400080000000057
:100090000000000000000000000000000D04000847
:1000A0000D0400080D0400080D0400080D040008EC
:1000B0000D0400080D040008000000000D040008F5
:1000C0000D0400080D0400080D0400080D040008CC
:1000D0000D04000800000000000000000000000007
:1000E0000D0400080D0400080D04000800000000C5
:1000F0000000000000000000000000000000000000
:10010000000000000D040008000000000D040008BD
:1001100000000000000000000000000000000000DF
:1001200000000000000000000000000000000000CF
:1001300000000000000000000000000000000000BF
:100140000000000000000000000000000D04000896
:10015000000000000000000000000000000000009F
:100160000D0400080D04000800000000000000005D
:10017000000000000000000000000000000000007F
:10018000000000000D040008000000000000000056
:040190000D04000852
:1001940010B5054C237833B9044B13B10448AFF3BD
:1001A40000800123237010BD2C04002000000000F7
:1001B4007405000808B5034B1BB103490348AFF3AA
:1001C400008008BD00000000300400207405000811
:1001D40080B483B000AF1C4B1B681B4A43F001037F
:1001E40013601A4B1B68194A43F480731360174B4E
:1001F4001B68164A23F400731360154B1B68144ADA
:1002040043F010031360124B1B68114A43F01003B0
:10021400136000237B6002E07B6801337B607B68B2
:100224000C4A9342F8DD0A4B1B68094A23F0100379
:10023400136000233B6002E03B6801333B603B6892
:10024400044A9342F8DDDEE7303802400000024001
:10025400140002403F4B4C0080B500AF164BD3F85E
:100264008830154A43F47003C2F88830134B1B6876
:10027400124A43F001031360104B00229A600F4BA3
:100284001B680E4A23F0847323F4803313600B4BF2
:100294000B4A5A60094B1B68084A23F480231360F5
:1002A400064B0022DA6000F00DF8034B4FF00062B9
:1002B4009A6000BF80BD00BF00ED00E0003802403E
:1002C4001030002480B483B000AF00237B6000238F
:1002D4003B60354B1B68344A43F480331360324B24
:1002E4001B6803F400333B607B6801337B603B682D
:1002F400002B03D17B68B3F5A04FF0D12A4B1B68C8
:1003040003F40033002B02D001233B6001E00023FF
:100314003B603B68012B40D1234B1B6C224A43F0CA
:1003240080531364214B1B68204A43F440431360F9
:100334001D4B1D4A9B6893601B4B1B4A9B68936033
:10034400194B9B68184A43F480539360164B184A20
:100354005A60154B1B68144A43F08073136000BF46
:10036400114B1B6803F00073002BF9D0114B40F2C2
:1003740002721A600C4B9B680B4A23F003039360D0
:10038400094B9B68084A43F00203936000BF064B85
:100394009B6803F00C03082BF9D100BF0C37BD4652
:1003A4005DF8047B704700BF0038024000700040D5
:1003B40019544107003C02400D4885460D480E493A
:1003C4000E4A002302E0D458C4500433C4188C42AB
:1003D400F9D30B4A0B4C002301E013600432A24210
:1003E400FBD3FFF739FF00F011F8FFF7F1FEFEE74A
:1003F40000000120000000202C0400209C050008BF
:100404002C0400206C040020FEE7000070B50D4EA3
:100414000D4D761BB61006D00024013455F8043B6C
:100424009847A642F9D1094E094D761B00F0A0F871
:10043400B61006D00024013455F8043B9847A64270
:10044400F9D170BD900500089005000898050008D2
:1004540090050008024B13B1024800F005B870473C
:100464000000000079040008002301461A461846DB
:1004740000F01EB838B50A4C0A4D641BA4100AD00B
:1004840004F18043013B05EB8305013C55F8043935
:100494009847002CF9D1BDE8384000F06FB800BF90
:1004A4009C05000898050008704700BF704700BF0E
:1004B4002DE9F8432B4D0646286898460F46914689
:1004C400FFF7F2FF284B1C68D4F84831002B3DD0CD
:1004D4005A681F2A0DDC02F1010C16BB0232C3F864
:1004E40004C0286843F82270FFF7E0FF0020BDE84D
:1004F400F8831E4B7BB34FF4C870AFF30080034600
:1005040048B3D4F848210021C0E900214FF0010C80
:10051400C4F848010A46C0F88811C0F88C11002EAE
:10052400DCD003EB82010124C1F88890D3F8880160
:1005340094402043022EC3F88801C1F80881CDD12C
:10054400D3F88C110C43C3F88C41C7E704F5A673A8
:10055400C4F84831BCE72868FFF7A8FF4FF0FF3024
:10056400C5E700BF280400208C0500080000000037
:10057400F8B500BFF8BC08BC9E467047F8B500BF8C
:08058400F8BC08BC9E4670475C
:04058C00000000204B
:0805900059040008B90100083C
:0405980095010008C1
:10059C0000000000EC02002054030020BC030020EB
:1005AC00000000000000000000000000000000003F
:1005BC00000000000000000000000000000000002F
:1005CC00000000000000000000000000000000001F
:1005DC00000000000000000000000000000000000F
:1005EC0000000000000000000000000000000000FF
:1005FC0000000000000000000000000000000000EF
:10060C0000000000000000000000000000000000DE
:10061C0000000000000000000000000000000000CE
:10062C0000000000000000000000000000000000BE
:10063C0000000000000000000100000000000000AD
:10064C000E33CDAB34126DE6ECDE05000B00000072
:10065C00000000000000000000000000000000008E
:10066C00000000000000000000000000000000007E
:10067C00000000000000000000000000000000006E
:10068C00000000000000000000000000000000005E
:0C09BC00000000000000000048040020C3
:04000005080003BD2F
:00000001FF
