:020000040800F2
:10000000000001202D0500087D0500087D05000881
:100010007D0500087D0500087D0500080000000042
:100020000000000000000000000000007D05000846
:100030007D050008000000007D0500087D05000822
:10004000000000007D0500087D0500087D05000812
:100050007D0500087D0500087D0500087D05000878
:100060007D0500087D0500087D05000800000000F2
:100070000000000000000000000000000000000080
:1000800000000000000000007D05000800000000E6
:100090000000000000000000000000007D050008D6
:1000A0007D0500087D0500087D0500087D05000828
:1000B0007D0500087D050008000000007D050008A2
:1000C0007D0500087D0500087D0500087D05000808
:1000D0007D05000800000000000000000000000096
:1000E0007D0500087D0500087D0500080000000072
:1000F0000000000000000000000000000000000000
:10010000000000007D050008000000007D050008DB
:1001100000000000000000000000000000000000DF
:1001200000000000000000000000000000000000CF
:1001300000000000000000000000000000000000BF
:100140000000000000000000000000007D05000825
:10015000000000000000000000000000000000009F
:100160007D0500087D05000800000000000000007B
:10017000000000000000000000000000000000007F
:10018000000000007D0500080000000000000000E5
:040190007D050008E1
:1001940010B5054C237833B9044B13B10448AFF3BD
:1001A40000800123237010BD3C04002000000000E7
:1001B400E406000808B5034B1BB103490348AFF339
:1001C400008008BD0000000040040020E406000890
:1001D40080B483B000AF7860084611461A460346DF
:1001E400FB700B46BB7013467B70204B1A6B7B78FD
:1001F400012101FA03F31D4913430B63BB78002B60
:1002040016D07B681A68FB785B00012101FA03F3BE
:100214001A437B681A607B681A68FB785B000133B9
:10022400012101FA03F3DB431A407B681A6016E0EC
:100234007B681A68FB785B00012101FA03F3DB4356
:100244001A407B681A607B681A68FB785B0001338C
:10025400012101FA03F3DB431A407B681A6000BFF3
:100264000C37BD465DF8047B704700BF0038024080
:1002740080B483B000AF78600B46FB701346BB704C
:100284007B681A68FB785B00012101FA03F31340D1
:10029400002B18D0BB78002B09D07B685A69FB78F7
:1002A400012101FA03F31A437B685A6109E07B6870
:1002B4005A69FB78012101FA03F3DB431A407B6896
:1002C4005A61002300E0012318460C37BD465DF84F
:1002D400047B704780B483B000AF78600B46FB703A
:1002E4007B681B69DAB2FB78012101FA03F3DBB204
:1002F4001340DBB218460C37BD465DF8047B7047EB
:1003040080B584B000AF0123002207212B48FFF7FA
:100314005FFF0023FB7308E0F97B012301222748D8
:10032400FFF756FFFB7B0133FB73FB7B062BF3D9F3
:100334000023BB7300BF07212048FFF7CBFF034610
:10034400002BF8D10023BB6002E0BB680133BB6023
:10035400BB681B4A9342F8DD07211848FFF7BAFF30
:100364000346002BE6D1BB7B092B01D90023BB73C9
:100374000023FB7112E0BB7B124AD35C1A46FB7963
:1003840042FA03F3DBB203F00103DAB2FB79194654
:100394000A48FFF76DFFFB790133FB71FB79062BEC
:1003A400E9D9BB7B0133BB7300BF07210348FFF7C7
:1003B40091FF0346002BF8D0BCE700BF00040240C5
:1003C4007F3801000000002080B500AF164BD3F841
:1003D4008830154A43F47003C2F88830134B1B6805
:1003E400124A43F001031360104B00229A600F4B32
:1003F4001B680E4A23F0847323F4803313600B4B81
:100404000B4A5A60094B1B68084A23F48023136083
:10041400064B0022DA6000F00DF8034B4FF0006247
:100424009A6000BF80BD00BF00ED00E000380240CC
:100434001030002480B483B000AF00237B6000231D
:100444003B60354B1B68344A43F480331360324BB2
:100454001B6803F400333B607B6801337B603B68BB
:10046400002B03D17B68B3F5A04FF0D12A4B1B6856
:1004740003F40033002B02D001233B6001E000238E
:100484003B603B68012B40D1234B1B6C224A43F059
:1004940080531364214B1B68204A43F44043136088
:1004A4001D4B1D4A9B6893601B4B1B4A9B689360C2
:1004B400194B9B68184A43F480539360164B184AAF
:1004C4005A60154B1B68144A43F08073136000BFD5
:1004D400114B1B6803F00073002BF9D0114B40F251
:1004E40002721A600C4B9B680B4A23F0030393605F
:1004F400094B9B68084A43F00203936000BF064B14
:100504009B6803F00C03082BF9D100BF0C37BD46E0
:100514005DF8047B704700BF003802400070004063
:1005240019544107003C02400D4885460D480E49C8
:100534000E4A002302E0D458C4500433C4188C4239
:10054400F9D30B4A0B4C002301E013600432A2429E
:10055400FBD3FFF739FF00F011F8FFF7D1FEFEE7F8
:1005640000000120000000203C0400200C070008CB
:100574003C0400207C040020FEE7000070B50D4E12
:100584000D4D761BB61006D00024013455F8043BFB
:100594009847A642F9D1094E094D761B00F0A0F800
:1005A400B61006D00024013455F8043B9847A642FF
:1005B400F9D170BD0007000800070008080700080B
:1005C40000070008024B13B1024800F005B8704759
:1005D40000000000E9050008002301461A461846F9
:1005E40000F01EB838B50A4C0A4D641BA4100AD09A
:1005F40004F18043013B05EB8305013C55F80439C4
:100604009847002CF9D1BDE8384000F06FB800BF1E
:100614000C07000808070008704700BF704700BFB8
:100624002DE9F8432B4D0646286898460F46914617
:10063400FFF7F2FF284B1C68D4F84831002B3DD05B
:100644005A681F2A0DDC02F1010C16BB0232C3F8F2
:1006540004C0286843F82270FFF7E0FF0020BDE8DB
:10066400F8831E4B7BB34FF4C870AFF3008003468E
:1006740048B3D4F848210021C0E900214FF0010C0F
:10068400C4F848010A46C0F88811C0F88C11002E3D
:10069400DCD003EB82010124C1F88890D3F88801EF
:1006A40094402043022EC3F88801C1F80881CDD1BB
:1006B400D3F88C110C43C3F88C41C7E704F5A67337
:1006C400C4F84831BCE72868FFF7A8FF4FF0FF30B3
:1006D400C5E700BF38040020FC0600080000000045
:1006E400F8B500BFF8BC08BC9E467047F8B500BF1B
:0806F400F8BC08BC9E467047EB
:0406FC0010000020CA
:08070000C9050008B901000859
:04070800950100084F
:10070C003F065B4F666D7D077F6F000000000000A9
:10071C0000000000FC02002064030020CC03002039
:10072C0000000000000000000000000000000000BD
:10073C0000000000000000000000000000000000AD
:10074C00000000000000000000000000000000009D
:10075C00000000000000000000000000000000008D
:10076C00000000000000000000000000000000007D
:10077C00000000000000000000000000000000006D
:10078C00000000000000000000000000000000005D
:10079C00000000000000000000000000000000004D
:1007AC00000000000000000000000000000000003D
:1007BC00000000000000000001000000000000002C
:1007CC000E33CDAB34126DE6ECDE05000B000000F1
:1007DC00000000000000000000000000000000000D
:1007EC0000000000000000000000000000000000FD
:1007FC0000000000000000000000000000000000ED
:10080C0000000000000000000000000000000000DC
:0C0B3C0000000000000000005804002031
:040000050800052DBD
:00000001FF
