:020000040800F2
:100000000000012029040008790400087904000890
:100010007904000879040008790400080000000051
:10002000000000000000000000000000790400084B
:100030007904000800000000790400087904000831
:100040000000000079040008790400087904000821
:100050007904000879040008BD020008790400084A
:100060007904000879040008790400080000000001
:100070000000000000000000000000000000000080
:1000800000000000000000007904000800000000EB
:1000900000000000000000000000000079040008DB
:1000A000790400087904000879040008790400083C
:1000B00079040008790400080000000079040008B1
:1000C000790400087904000879040008790400081C
:1000D000790400080000000000000000000000009B
:1000E0007904000879040008790400080000000081
:1000F0000000000000000000000000000000000000
:1001000000000000790400080000000079040008E5
:1001100000000000000000000000000000000000DF
:1001200000000000000000000000000000000000CF
:1001300000000000000000000000000000000000BF
:10014000000000000000000000000000790400082A
:10015000000000000000000000000000000000009F
:100160007904000879040008000000000000000085
:10017000000000000000000000000000000000007F
:1001800000000000790400080000000000000000EA
:0401900079040008E6
:1001940010B5054C237833B9044B13B10448AFF3BD
:1001A40000800123237010BD2C04002000000000F7
:1001B400E005000808B5034B1BB103490348AFF33E
:1001C400008008BD0000000030040020E0050008A5
:1001D40080B400AF2A4B1B6B294A43F0010313631D
:1001E400274B1B6B264A43F002031363254B1B6802
:1001F400244A23F001031360224B1B68214A23F095
:10020400020313601F4BDB681E4A43F00103D360F3
:100214001D4B1B681C4A43F004031360184B5B6CB2
:10022400174A43F480435364184B9B68174A43F0BE
:1002340001039360154B9B68144A23F002039360F7
:10024400124B9B68114A23F0040393600F4B9B6885
:100254000E4A23F0080393600D4B1B680C4A43F0CD
:10026400010313600A4BDB68094A43F00103D360BE
:10027400084B1B68074A43F040031360FEE700BFC6
:1002840000380240000402400000024000380140EF
:10029400003C014000E100E080B400AF054B5B6925
:1002A400044A83F00203536100BFBD465DF8047B3A
:1002B400704700BF0000024080B500AFFFF7ECFFBD
:1002C40000BF80BD80B500AF164BD3F88830154A07
:1002D40043F47003C2F88830134B1B68124A43F08E
:1002E40001031360104B00229A600F4B1B680E4AE7
:1002F40023F0847323F4803313600B4B0B4A5A604E
:10030400094B1B68084A23F480231360064B002220
:10031400DA6000F00DF8034B4FF000629A6000BF02
:1003240080BD00BF00ED00E0003802401030002422
:1003340080B483B000AF00237B6000233B60354B67
:100344001B68344A43F480331360324B1B6803F454
:1003540000333B607B6801337B603B68002B03D137
:100364007B68B3F5A04FF0D12A4B1B6803F400332C
:10037400002B02D001233B6001E000233B603B687B
:10038400012B40D1234B1B6C224A43F0805313644E
:10039400214B1B68204A43F4404313601D4B1D4A04
:1003A4009B6893601B4B1B4A9B689360194B9B682B
:1003B400184A43F480539360164B184A5A60154BFD
:1003C4001B68144A43F08073136000BF114B1B6811
:1003D40003F00073002BF9D0114B40F202721A6043
:1003E4000C4B9B680B4A23F003039360094B9B68F7
:1003F400084A43F00203936000BF064B9B6803F076
:100404000C03082BF9D100BF0C37BD465DF8047B03
:10041400704700BF00380240007000401954410783
:10042400003C02400D4885460D480E490E4A002303
:1004340002E0D458C4500433C4188C42F9D30B4A94
:100444000B4C002301E013600432A242FBD3FFF7FC
:1004540039FF00F011F8FFF7BBFEFEE700000120B2
:10046400000000202C040020080600082C040020B2
:100474006C040020FEE7000070B50D4E0D4D761B98
:10048400B61006D00024013455F8043B9847A64220
:10049400F9D1094E094D761B00F0A0F8B61006D02C
:1004A4000024013455F8043B9847A642F9D170BDA5
:1004B400FC050008FC05000804060008FC0500080B
:1004C400024B13B1024800F005B870470000000069
:1004D400E5040008002301461A46184600F01EB839
:1004E40038B50A4C0A4D641BA4100AD004F18043A9
:1004F400013B05EB8305013C55F804399847002C72
:10050400F9D1BDE8384000F06FB800BF0806000814
:1005140004060008704700BF704700BF2DE9F84388
:100524002B4D0646286898460F469146FFF7F2FF82
:10053400284B1C68D4F84831002B3DD05A681F2A38
:100544000DDC02F1010C16BB0232C3F804C02868AA
:1005540043F82270FFF7E0FF0020BDE8F8831E4B4C
:100564007BB34FF4C870AFF30080034648B3D4F8AC
:1005740048210021C0E900214FF0010CC4F84801D2
:100584000A46C0F88811C0F88C11002EDCD003EBA9
:1005940082010124C1F88890D3F888019440204353
:1005A400022EC3F88801C1F80881CDD1D3F88C118B
:1005B4000C43C3F88C41C7E704F5A673C4F848316B
:1005C400BCE72868FFF7A8FF4FF0FF30C5E700BF7E
:1005D40028040020F805000800000000F8B500BF5A
:1005E400F8BC08BC9E467047F8B500BFF8BC08BC10
:0405F4009E46704768
:0405F80000000020DF
:0805FC00C5040008B901000864
:040604009501000854
:1006080000000000EC02002054030020BC0300207E
:1006180000000000000000000000000000000000D2
:1006280000000000000000000000000000000000C2
:1006380000000000000000000000000000000000B2
:1006480000000000000000000000000000000000A2
:100658000000000000000000000000000000000092
:100668000000000000000000000000000000000082
:100678000000000000000000000000000000000072
:100688000000000000000000000000000000000062
:100698000000000000000000000000000000000052
:1006A8000000000000000000010000000000000041
:1006B8000E33CDAB34126DE6ECDE05000B00000006
:1006C8000000000000000000000000000000000022
:1006D8000000000000000000000000000000000012
:1006E8000000000000000000000000000000000002
:1006F80000000000000000000000000000000000F2
:0C0A280000000000000000004804002056
:0400000508000429C2
:00000001FF
