:020000040800F2
:1000000000000120F102000841030008410300083C
:1000100041030008410300084103000800000000FC
:100020000000000000000000000000004103000884
:1000300041030008000000004103000841030008DC
:1000400000000000410300084103000841030008CC
:100050004103000841030008410300084103000870
:1000600041030008410300084103000800000000AC
:100070000000000000000000000000000000000080
:100080000000000000000000410300080000000024
:100090000000000000000000000000004103000814
:1000A0004103000841030008410300084103000820
:1000B000410300084103000800000000410300085C
:1000C0004103000841030008410300084103000800
:1000D00041030008000000000000000000000000D4
:1000E000410300084103000841030008000000002C
:1000F0000000000000000000000000000000000000
:100100000000000041030008000000004103000857
:1001100000000000000000000000000000000000DF
:1001200000000000000000000000000000000000CF
:1001300000000000000000000000000000000000BF
:100140000000000000000000000000004103000863
:10015000000000000000000000000000000000009F
:1001600041030008410300080000000000000000F7
:10017000000000000000000000000000000000007F
:100180000000000041030008000000000000000023
:04019000410300081F
:1001940010B5054C237833B9044B13B10448AFF3BD
:1001A40000800123237010BD2C04002000000000F7
:1001B400A804000808B5034B1BB103490348AFF377
:1001C400008008BD0000000030040020A8040008DE
:1001D40080B483B000AF3E4B1B683D4A43F002033A
:1001E40013603C4B1B683B4A23F040031360394BBC
:1001F4001B68384A23F080031360364B1B68354A6A
:1002040043F480631360334B1B68324A23F4006366
:100214001360304B1B682F4A43F4805313602D4BFB
:100224001B682C4A23F4005313602A4B1B68294A89
:1002340043F480431360274B1B68264A23F400438E
:100244001360254B1B68244A43F040031360224B80
:100254001B68214A23F080031360204B1B681F4A4C
:1002640023F0200313601D4B1B681C4A23F040033A
:1002740013601A4B1B68194A23F080031360002390
:10028400FB7100BF164B1B6803F00803002BF9D168
:1002940000233B6002E03B6801333B603B68114A4A
:1002A4009342F8DD0E4B1B6803F00803002BE8D1E2
:1002B400FB795A010C4B1A60FB790133FB7100BFC7
:1002C400074B1B6803F00803002BF9D0D9E700BFE4
:1002D40030380240000402400C040240040402408E
:1002E400100402407F380100140402400D48854682
:1002F4000D480E490E4A002302E0D458C45004337A
:10030400C4188C42F9D30B4A0B4C002301E0136050
:100314000432A242FBD3AFF3008000F011F8FFF7E0
:1003240057FFFEE700000120000000202C040020FD
:10033400D00400082C0400206C040020FEE7000018
:1003440070B50D4E0D4D761BB61006D00024013449
:1003540055F8043B9847A642F9D1094E094D761B3E
:1003640000F0A0F8B61006D00024013455F8043B80
:100374009847A642F9D170BDC4040008C40400081B
:10038400CC040008C4040008024B13B1024800F076
:1003940005B8704700000000AD03000800230146C3
:1003A4001A46184600F01EB838B50A4C0A4D641BAC
:1003B400A4100AD004F18043013B05EB8305013C02
:1003C40055F804399847002CF9D1BDE8384000F0BD
:1003D4006FB800BFD0040008CC040008704700BF09
:1003E400704700BF2DE9F8432B4D06462868984610
:1003F4000F469146FFF7F2FF284B1C68D4F84831AA
:10040400002B3DD05A681F2A0DDC02F1010C16BBEB
:100414000232C3F804C0286843F82270FFF7E0FFF3
:100424000020BDE8F8831E4B7BB34FF4C870AFF3D4
:100434000080034648B3D4F848210021C0E90021D4
:100444004FF0010CC4F848010A46C0F88811C0F8FE
:100454008C11002EDCD003EB82010124C1F88890BA
:10046400D3F8880194402043022EC3F88801C1F8D0
:100474000881CDD1D3F88C110C43C3F88C41C7E764
:1004840004F5A673C4F84831BCE72868FFF7A8FF51
:100494004FF0FF30C5E700BF28040020C004000867
:1004A40000000000F8B500BFF8BC08BC9E467047C9
:0C04B400F8B500BFF8BC08BC9E467047BD
:0404C0000000002018
:0804C4008D030008B9010008D6
:0404CC00950100088E
:1004D00000000000EC02002054030020BC030020B8
:1004E000000000000000000000000000000000000C
:1004F00000000000000000000000000000000000FC
:1005000000000000000000000000000000000000EB
:1005100000000000000000000000000000000000DB
:1005200000000000000000000000000000000000CB
:1005300000000000000000000000000000000000BB
:1005400000000000000000000000000000000000AB
:10055000000000000000000000000000000000009B
:10056000000000000000000000000000000000008B
:10057000000000000000000001000000000000007A
:100580000E33CDAB34126DE6ECDE05000B0000003F
:10059000000000000000000000000000000000005B
:1005A000000000000000000000000000000000004B
:1005B000000000000000000000000000000000003B
:1005C000000000000000000000000000000000002B
:0C08F00000000000000000004804002090
:04000005080002F1FC
:00000001FF
