:020000040800F2
:10000000000001205D060008AD060008AD060008EE
:10001000AD060008AD060008AD06000800000000AF
:10002000000000000000000000000000AD06000815
:10003000AD06000800000000AD060008AD0600088F
:1000400000000000AD060008AD060008AD0600087F
:10005000AD060008AD060008AD060008AD060008B4
:10006000AD060008AD060008AD060008000000005F
:100070000000000000000000000000000000000080
:100080000000000000000000AD06000800000000B5
:10009000000000000000000000000000AD060008A5
:1000A000AD060008AD060008AD060008AD06000864
:1000B000AD060008AD06000800000000AD0600080F
:1000C000AD060008AD060008AD060008AD06000844
:1000D000AD06000800000000000000000000000065
:1000E000AD060008AD060008AD06000800000000DF
:1000F0000000000000000000000000000000000000
:1001000000000000AD06000800000000AD06000879
:1001100000000000000000000000000000000000DF
:1001200000000000000000000000000000000000CF
:1001300000000000000000000000000000000000BF
:10014000000000000000000000000000AD060008F4
:10015000000000000000000000000000000000009F
:10016000AD060008AD060008000000000000000019
:10017000000000000000000000000000000000007F
:1001800000000000AD0600080000000000000000B4
:04019000AD060008B0
:1001940010B5054C237833B9044B13B10448AFF3BD
:1001A40000800123237010BD3C04002000000000E7
:1001B4001408000808B5034B1BB103490348AFF307
:1001C400008008BD0000000040040020140800085E
:1001D40080B586B000AF0346FB71134A07F10C03E8
:1001E40007CA03C31A800023FB7515E0FB7907F1E6
:1001F4001802134413F80C3C1A46FB7D42FA03F32D
:10020400DBB203F00103DAB2FB7D1946074800F0C4
:1002140077F8FB7D0133FB75FB7D062BE6D900BF28
:100224001837BD4680BD00BF2C08000800040240FA
:1002340080B582B000AF0023FB7108E0F979012397
:100244000122064800F00CF8FB790133FB71FB79BD
:10025400062BF3D900BF0837BD4680BD0004024019
:1002640080B483B000AF7860084611461A4603464E
:10027400FB700B46BB7013467B70204B1A6B7B786C
:10028400012101FA03F31D4913430B63BB78002BCF
:1002940016D07B681A68FB785B00012101FA03F32E
:1002A4001A437B681A607B681A68FB785B00013329
:1002B400012101FA03F3DB431A407B681A6016E05C
:1002C4007B681A68FB785B00012101FA03F3DB43C6
:1002D4001A407B681A607B681A68FB785B000133FC
:1002E400012101FA03F3DB431A407B681A6000BF63
:1002F4000C37BD465DF8047B704700BF00380240F0
:1003040080B483B000AF78600B46FB701346BB70BB
:100314007B681A68FB785B00012101FA03F3134040
:10032400002B18D0BB78002B09D07B685A69FB7866
:10033400012101FA03F31A437B685A6109E07B68DF
:100344005A69FB78012101FA03F3DB431A407B6805
:100354005A61002300E0012318460C37BD465DF8BE
:10036400047B704780B483B000AF78600B46FB70A9
:100374007B681B69DAB2FB78012101FA03F3DBB273
:100384001340DBB218460C37BD465DF8047B70475A
:1003940080B582B000AF0023FB7108E0F979002337
:1003A40001220E48FFF75CFFFB790133FB71FB79F7
:1003B400022BF3D90323BB7108E0B979002300228F
:1003C4000648FFF74DFFBB790133BB71BB79062BA0
:1003D400F3D900BF0837BD4680BD00BF000002400E
:1003E40080B584B000AF0023FB6053E0FB68DBB250
:1003F400002219462B48FFF783FF0023BB603CE033
:10040400BB68DBB20333DBB219462648FFF7AAFF09
:100414000346002B2ED100237B6002E07B6801336E
:100424007B607B6847F22F529342F7DDBB68DBB2F7
:100434000333DBB219461B48FFF794FF0346002B36
:1004440018D11949BA6813465B001344CA18FB68EB
:1004540013441A78154B1A7000BFBB68DBB2033320
:10046400DBB219460F48FFF77DFF0346002BF4D09B
:1004740000F02AF8BB680133BB60BB68032BBFDD07
:10048400FB68DBB2012219460648FFF739FFFB6817
:100494000133FB60FB68022BA8DD00BF1037BD46AB
:1004A40080BD00BF0000024000000020580400206E
:1004B40080B400AF034B1B781846BD465DF8047B3F
:1004C400704700BF5804002080B582B000AFFFF72A
:1004D400EFFF0346FB71FB791846FFF779FE00BF77
:1004E4000837BD4680BD80B500AFFFF751FFFFF769
:1004F4009FFEFFF775FFFCE780B500AF164BD3F8FE
:100504008830154A43F47003C2F88830134B1B68D3
:10051400124A43F001031360104B00229A600F4B00
:100524001B680E4A23F0847323F4803313600B4B4F
:100534000B4A5A60094B1B68084A23F48023136052
:10054400064B0022DA6000F00DF8034B4FF0006216
:100554009A6000BF80BD00BF00ED00E0003802409B
:100564001030002480B483B000AF00237B600023EC
:100574003B60354B1B68344A43F480331360324B81
:100584001B6803F400333B607B6801337B603B688A
:10059400002B03D17B68B3F5A04FF0D12A4B1B6825
:1005A40003F40033002B02D001233B6001E000235D
:1005B4003B603B68012B40D1234B1B6C224A43F028
:1005C40080531364214B1B68204A43F44043136057
:1005D4001D4B1D4A9B6893601B4B1B4A9B68936091
:1005E400194B9B68184A43F480539360164B184A7E
:1005F4005A60154B1B68144A43F08073136000BFA4
:10060400114B1B6803F00073002BF9D0114B40F21F
:1006140002721A600C4B9B680B4A23F0030393602D
:10062400094B9B68084A43F00203936000BF064BE2
:100634009B6803F00C03082BF9D100BF0C37BD46AF
:100644005DF8047B704700BF003802400070004032
:1006540019544107003C02400D4885460D480E4997
:100664000E4A002302E0D458C4500433C4188C4208
:10067400F9D30B4A0B4C002301E013600432A2426D
:10068400FBD3FFF739FF00F011F8FFF72CFFFEE76B
:1006940000000120000000203C040020480800085D
:1006A4003C04002080040020FEE7000070B50D4EDD
:1006B4000D4D761BB61006D00024013455F8043BCA
:1006C4009847A642F9D1094E094D761B00F0A0F8CF
:1006D400B61006D00024013455F8043B9847A642CE
:1006E400F9D170BD3C0800083C0800084408000823
:1006F4003C080008024B13B1024800F005B87047EB
:100704000000000019070008002301461A46184695
:1007140000F01EB838B50A4C0A4D641BA4100AD068
:1007240004F18043013B05EB8305013C55F8043992
:100734009847002CF9D1BDE8384000F06FB800BFED
:100744004808000844080008704700BF704700BF0D
:100754002DE9F8432B4D0646286898460F469146E6
:10076400FFF7F2FF284B1C68D4F84831002B3DD02A
:100774005A681F2A0DDC02F1010C16BB0232C3F8C1
:1007840004C0286843F82270FFF7E0FF0020BDE8AA
:10079400F8831E4B7BB34FF4C870AFF3008003465D
:1007A40048B3D4F848210021C0E900214FF0010CDE
:1007B400C4F848010A46C0F88811C0F88C11002E0C
:1007C400DCD003EB82010124C1F88890D3F88801BE
:1007D40094402043022EC3F88801C1F80881CDD18A
:1007E400D3F88C110C43C3F88C41C7E704F5A67306
:1007F400C4F84831BCE72868FFF7A8FF4FF0FF3082
:10080400C5E700BF380400203808000800000000D5
:10081400F8B500BFF8BC08BC9E467047F8B500BFE9
:08082400F8BC08BC9E467047B9
:10082C003F065B4F666D7D077F6F00001000002058
:08083C00F9060008B9010008EB
:040844009501000812
:100848000102030405060708090000000000000073
:1008580000000000FC02002064030020CC030020FC
:100868000000000000000000000000000000000080
:100878000000000000000000000000000000000070
:100888000000000000000000000000000000000060
:100898000000000000000000000000000000000050
:1008A8000000000000000000000000000000000040
:1008B8000000000000000000000000000000000030
:1008C8000000000000000000000000000000000020
:1008D8000000000000000000000000000000000010
:1008E8000000000000000000000000000000000000
:1008F80000000000000000000100000000000000EF
:100908000E33CDAB34126DE6ECDE05000B000000B3
:1009180000000000000000000000000000000000CF
:1009280000000000000000000000000000000000BF
:1009380000000000000000000000000000000000AF
:10094800000000000000000000000000000000009F
:0C0C780000000000000000005C040020F0
:040000050800065D8C
:00000001FF
